{
  "contractName": "ContratoPayable",
  "abi": [
    {
      "inputs": [],
      "stateMutability": "nonpayable",
      "type": "constructor"
    },
    {
      "inputs": [
        {
          "internalType": "address",
          "name": "",
          "type": "address"
        }
      ],
      "name": "clients",
      "outputs": [
        {
          "internalType": "address",
          "name": "wallet",
          "type": "address"
        },
        {
          "internalType": "string",
          "name": "name",
          "type": "string"
        },
        {
          "internalType": "uint256",
          "name": "value",
          "type": "uint256"
        }
      ],
      "stateMutability": "view",
      "type": "function"
    },
    {
      "inputs": [],
      "name": "owner",
      "outputs": [
        {
          "internalType": "address payable",
          "name": "",
          "type": "address"
        }
      ],
      "stateMutability": "view",
      "type": "function"
    },
    {
      "stateMutability": "payable",
      "type": "receive"
    },
    {
      "inputs": [
        {
          "internalType": "string",
          "name": "_name",
          "type": "string"
        }
      ],
      "name": "createAccount",
      "outputs": [],
      "stateMutability": "nonpayable",
      "type": "function"
    },
    {
      "inputs": [],
      "name": "getWalletBalance",
      "outputs": [
        {
          "internalType": "uint256",
          "name": "",
          "type": "uint256"
        }
      ],
      "stateMutability": "view",
      "type": "function"
    },
    {
      "inputs": [],
      "name": "getAccountBalance",
      "outputs": [
        {
          "internalType": "uint256",
          "name": "",
          "type": "uint256"
        }
      ],
      "stateMutability": "view",
      "type": "function"
    },
    {
      "inputs": [],
      "name": "getContractBalance",
      "outputs": [
        {
          "internalType": "uint256",
          "name": "",
          "type": "uint256"
        }
      ],
      "stateMutability": "view",
      "type": "function"
    },
    {
      "inputs": [],
      "name": "deposit",
      "outputs": [],
      "stateMutability": "payable",
      "type": "function"
    },
    {
      "inputs": [],
      "name": "withdraw",
      "outputs": [],
      "stateMutability": "nonpayable",
      "type": "function"
    }
  ],
  "bytecode": "0x60806040523480156200001157600080fd5b50336000806101000a81548173ffffffffffffffffffffffffffffffffffffffff021916908373ffffffffffffffffffffffffffffffffffffffff1602179055506200005c620001b7565b6040518060400160405280600881526020017f4c656f6e6172646f000000000000000000000000000000000000000000000000815250816020018190525060008054906101000a900473ffffffffffffffffffffffffffffffffffffffff16816000019073ffffffffffffffffffffffffffffffffffffffff16908173ffffffffffffffffffffffffffffffffffffffff1681525050600081604001818152505080600160003373ffffffffffffffffffffffffffffffffffffffff1673ffffffffffffffffffffffffffffffffffffffff16815260200190815260200160002060008201518160000160006101000a81548173ffffffffffffffffffffffffffffffffffffffff021916908373ffffffffffffffffffffffffffffffffffffffff1602179055506020820151816001019080519060200190620001a2929190620001ee565b50604082015181600201559050505062000302565b6040518060600160405280600073ffffffffffffffffffffffffffffffffffffffff16815260200160608152602001600081525090565b828054620001fc90620002cd565b90600052602060002090601f0160209004810192826200022057600085556200026c565b82601f106200023b57805160ff19168380011785556200026c565b828001600101855582156200026c579182015b828111156200026b5782518255916020019190600101906200024e565b5b5090506200027b91906200027f565b5090565b5b808211156200029a57600081600090555060010162000280565b5090565b7f4e487b7100000000000000000000000000000000000000000000000000000000600052602260045260246000fd5b60006002820490506001821680620002e657607f821691505b602082108103620002fc57620002fb6200029e565b5b50919050565b610ea180620003126000396000f3fe60806040526004361061007f5760003560e01c80636896fabf1161004e5780636896fabf146101355780636f9fb98a146101605780638da5cb5b1461018b578063d0e30db0146101b657610086565b8063298daf5b1461008b578063329a27e7146100b45780633ccfd60b146100df57806361eed2a9146100f657610086565b3661008657005b600080fd5b34801561009757600080fd5b506100b260048036038101906100ad91906109fd565b6101c0565b005b3480156100c057600080fd5b506100c961039a565b6040516100d69190610a5f565b60405180910390f35b3480156100eb57600080fd5b506100f46103cc565b005b34801561010257600080fd5b5061011d60048036038101906101189190610ad8565b610541565b60405161012c93929190610b9c565b60405180910390f35b34801561014157600080fd5b5061014a610613565b6040516101579190610a5f565b60405180910390f35b34801561016c57600080fd5b50610175610670565b6040516101829190610a5f565b60405180910390f35b34801561019757600080fd5b506101a061068b565b6040516101ad9190610bfb565b60405180910390f35b6101be6106af565b005b600073ffffffffffffffffffffffffffffffffffffffff16600160003373ffffffffffffffffffffffffffffffffffffffff1673ffffffffffffffffffffffffffffffffffffffff16815260200190815260200160002060000160009054906101000a900473ffffffffffffffffffffffffffffffffffffffff1673ffffffffffffffffffffffffffffffffffffffff1614610291576040517f08c379a000000000000000000000000000000000000000000000000000000000815260040161028890610c62565b60405180910390fd5b6102996107c9565b81816020018190525033816000019073ffffffffffffffffffffffffffffffffffffffff16908173ffffffffffffffffffffffffffffffffffffffff1681525050600081604001818152505080600160003373ffffffffffffffffffffffffffffffffffffffff1673ffffffffffffffffffffffffffffffffffffffff16815260200190815260200160002060008201518160000160006101000a81548173ffffffffffffffffffffffffffffffffffffffff021916908373ffffffffffffffffffffffffffffffffffffffff1602179055506020820151816001019080519060200190610388929190610800565b50604082015181600201559050505050565b6000670de0b6b3a76400003373ffffffffffffffffffffffffffffffffffffffff16316103c79190610ce0565b905090565b6000600160003373ffffffffffffffffffffffffffffffffffffffff1673ffffffffffffffffffffffffffffffffffffffff168152602001908152602001600020600201549050600060646009836104249190610d11565b61042e9190610ce0565b90506000818361043e9190610d6b565b905060003390508073ffffffffffffffffffffffffffffffffffffffff166108fc849081150290604051600060405180830381858888f1935050505015801561048b573d6000803e3d6000fd5b5060008054906101000a900473ffffffffffffffffffffffffffffffffffffffff1673ffffffffffffffffffffffffffffffffffffffff166108fc839081150290604051600060405180830381858888f193505050501580156104f2573d6000803e3d6000fd5b506000600160003373ffffffffffffffffffffffffffffffffffffffff1673ffffffffffffffffffffffffffffffffffffffff1681526020019081526020016000206002018190555050505050565b60016020528060005260406000206000915090508060000160009054906101000a900473ffffffffffffffffffffffffffffffffffffffff169080600101805461058a90610dce565b80601f01602080910402602001604051908101604052809291908181526020018280546105b690610dce565b80156106035780601f106105d857610100808354040283529160200191610603565b820191906000526020600020905b8154815290600101906020018083116105e657829003601f168201915b5050505050908060020154905083565b6000670de0b6b3a7640000600160003373ffffffffffffffffffffffffffffffffffffffff1673ffffffffffffffffffffffffffffffffffffffff1681526020019081526020016000206002015461066b9190610ce0565b905090565b6000670de0b6b3a7640000476106869190610ce0565b905090565b60008054906101000a900473ffffffffffffffffffffffffffffffffffffffff1681565b600073ffffffffffffffffffffffffffffffffffffffff16600160003373ffffffffffffffffffffffffffffffffffffffff1673ffffffffffffffffffffffffffffffffffffffff16815260200190815260200160002060000160009054906101000a900473ffffffffffffffffffffffffffffffffffffffff1673ffffffffffffffffffffffffffffffffffffffff1603610780576040517f08c379a000000000000000000000000000000000000000000000000000000000815260040161077790610e4b565b60405180910390fd5b34600160003373ffffffffffffffffffffffffffffffffffffffff1673ffffffffffffffffffffffffffffffffffffffff16815260200190815260200160002060020181905550565b6040518060600160405280600073ffffffffffffffffffffffffffffffffffffffff16815260200160608152602001600081525090565b82805461080c90610dce565b90600052602060002090601f01602090048101928261082e5760008555610875565b82601f1061084757805160ff1916838001178555610875565b82800160010185558215610875579182015b82811115610874578251825591602001919060010190610859565b5b5090506108829190610886565b5090565b5b8082111561089f576000816000905550600101610887565b5090565b6000604051905090565b600080fd5b600080fd5b600080fd5b600080fd5b6000601f19601f8301169050919050565b7f4e487b7100000000000000000000000000000000000000000000000000000000600052604160045260246000fd5b61090a826108c1565b810181811067ffffffffffffffff82111715610929576109286108d2565b5b80604052505050565b600061093c6108a3565b90506109488282610901565b919050565b600067ffffffffffffffff821115610968576109676108d2565b5b610971826108c1565b9050602081019050919050565b82818337600083830152505050565b60006109a061099b8461094d565b610932565b9050828152602081018484840111156109bc576109bb6108bc565b5b6109c784828561097e565b509392505050565b600082601f8301126109e4576109e36108b7565b5b81356109f484826020860161098d565b91505092915050565b600060208284031215610a1357610a126108ad565b5b600082013567ffffffffffffffff811115610a3157610a306108b2565b5b610a3d848285016109cf565b91505092915050565b6000819050919050565b610a5981610a46565b82525050565b6000602082019050610a746000830184610a50565b92915050565b600073ffffffffffffffffffffffffffffffffffffffff82169050919050565b6000610aa582610a7a565b9050919050565b610ab581610a9a565b8114610ac057600080fd5b50565b600081359050610ad281610aac565b92915050565b600060208284031215610aee57610aed6108ad565b5b6000610afc84828501610ac3565b91505092915050565b610b0e81610a9a565b82525050565b600081519050919050565b600082825260208201905092915050565b60005b83811015610b4e578082015181840152602081019050610b33565b83811115610b5d576000848401525b50505050565b6000610b6e82610b14565b610b788185610b1f565b9350610b88818560208601610b30565b610b91816108c1565b840191505092915050565b6000606082019050610bb16000830186610b05565b8181036020830152610bc38185610b63565b9050610bd26040830184610a50565b949350505050565b6000610be582610a7a565b9050919050565b610bf581610bda565b82525050565b6000602082019050610c106000830184610bec565b92915050565b7f4163636f756e7420616c72656164792065786973747300000000000000000000600082015250565b6000610c4c601683610b1f565b9150610c5782610c16565b602082019050919050565b60006020820190508181036000830152610c7b81610c3f565b9050919050565b7f4e487b7100000000000000000000000000000000000000000000000000000000600052601260045260246000fd5b7f4e487b7100000000000000000000000000000000000000000000000000000000600052601160045260246000fd5b6000610ceb82610a46565b9150610cf683610a46565b925082610d0657610d05610c82565b5b828204905092915050565b6000610d1c82610a46565b9150610d2783610a46565b9250817fffffffffffffffffffffffffffffffffffffffffffffffffffffffffffffffff0483118215151615610d6057610d5f610cb1565b5b828202905092915050565b6000610d7682610a46565b9150610d8183610a46565b925082821015610d9457610d93610cb1565b5b828203905092915050565b7f4e487b7100000000000000000000000000000000000000000000000000000000600052602260045260246000fd5b60006002820490506001821680610de657607f821691505b602082108103610df957610df8610d9f565b5b50919050565b7f4163636f756e7420646f6573206e6f7420657869737400000000000000000000600082015250565b6000610e35601683610b1f565b9150610e4082610dff565b602082019050919050565b60006020820190508181036000830152610e6481610e28565b905091905056fea2646970667358221220ffce81d6515ad195084263f1b6b08ac0e3c93a2b5b3498ed31a2f2daa124215d64736f6c634300080d0033",
  "immutableReferences": {},
  "source": "// SPDX-License-Identifier: MIT\r\n\r\npragma solidity ^0.8.0;\r\n\r\ncontract ContratoPayable {\r\n\r\n    address payable public owner;\r\n\r\n    struct Client {\r\n        address wallet;\r\n        string name;\r\n        uint value;\r\n    }\r\n\r\n    mapping(address => Client) public clients;\r\n\r\n    receive() external payable{}\r\n\r\n    constructor() {\r\n        owner = payable(msg.sender);\r\n\r\n        Client memory newClient;\r\n\r\n        newClient.name = \"Leonardo\";\r\n        newClient.wallet = owner;\r\n        newClient.value = 0;\r\n\r\n        clients[msg.sender] = newClient;\r\n    }\r\n\r\n    function createAccount(string memory _name) public{\r\n        require(clients[msg.sender].wallet == address(0), \"Account already exists\");\r\n        Client memory newClient;\r\n\r\n        newClient.name = _name;\r\n        newClient.wallet = payable(msg.sender);\r\n        newClient.value = 0;\r\n\r\n        clients[msg.sender]  = newClient;\r\n    }\r\n\r\n    function getWalletBalance() public view returns(uint) {\r\n        return address(msg.sender).balance / 1000000000000000000;\r\n    }\r\n\r\n    function getAccountBalance() public view returns(uint){\r\n        return clients[msg.sender].value / 1000000000000000000;\r\n    }\r\n\r\n    function getContractBalance() public view returns(uint) {\r\n        return address(this).balance / 1000000000000000000;\r\n    }\r\n\r\n    function deposit() public payable{\r\n        require(clients[msg.sender].wallet != address(0), \"Account does not exist\");\r\n        clients[msg.sender].value = msg.value;\r\n    }\r\n\r\n    function withdraw() public {\r\n        uint value = clients[msg.sender].value;\r\n\r\n        uint256 clientWithdraw = (value * 9 / 100);\r\n        uint256 contractWithdraw = value - clientWithdraw;\r\n\r\n        address payable client = payable(msg.sender);\r\n\r\n        client.transfer(clientWithdraw);\r\n        owner.transfer(contractWithdraw);\r\n\r\n        clients[msg.sender].value = 0;\r\n        \r\n    }\r\n\r\n}",
  "sourcePath": "C:\\Users\\MARIA EDUARDA\\OneDrive\\Documentos\\Github\\Truffle\\primeiro-projeto\\contracts\\ContratoPayable2.sol",
  "compiler": {
    "name": "solc",
    "version": "0.8.13+commit.abaa5c0e.Emscripten.clang"
  },
  "schemaVersion": "3.4.15",
  "updatedAt": "2023-09-01T13:19:56.610Z",
  "devdoc": {
    "kind": "dev",
    "methods": {},
    "version": 1
  },
  "userdoc": {
    "kind": "user",
    "methods": {},
    "version": 1
  }
}