{
  "contractName": "HelloWorld",
  "abi": [
    {
      "inputs": [],
      "stateMutability": "nonpayable",
      "type": "constructor"
    },
    {
      "inputs": [],
      "name": "numero",
      "outputs": [
        {
          "internalType": "uint256",
          "name": "",
          "type": "uint256"
        }
      ],
      "stateMutability": "view",
      "type": "function",
      "constant": true
    },
    {
      "inputs": [
        {
          "internalType": "uint256",
          "name": "_newNumero",
          "type": "uint256"
        }
      ],
      "name": "setNumero",
      "outputs": [],
      "stateMutability": "nonpayable",
      "type": "function"
    }
  ],
  "bytecode": "0x608060405234801561001057600080fd5b5060008081905550610133806100276000396000f3fe6080604052348015600f57600080fd5b506004361060325760003560e01c806356e7fedc14603757806391f5de3814604f575b600080fd5b604d60048036038101906049919060af565b6069565b005b60556073565b6040516060919060e4565b60405180910390f35b8060008190555050565b60005481565b600080fd5b6000819050919050565b608f81607e565b8114609957600080fd5b50565b60008135905060a9816088565b92915050565b60006020828403121560c25760c16079565b5b600060ce84828501609c565b91505092915050565b60de81607e565b82525050565b600060208201905060f7600083018460d7565b9291505056fea2646970667358221220913b06b1737513e2175934ca5f70f1e15c8e5532643c3b68025ebbbab11c235a64736f6c634300080d0033",
  "immutableReferences": {},
  "source": "// SPDX-License-Identifier: MIT\r\n\r\npragma solidity ^0.8.0;\r\n\r\ncontract HelloWorld {\r\n    uint public numero;\r\n\r\n    constructor(){\r\n        numero = 0;\r\n    }\r\n\r\n    function setNumero(uint _newNumero) public {\r\n        numero = _newNumero;\r\n    }\r\n}",
  "sourcePath": "C:\\Users\\MARIA EDUARDA\\OneDrive\\Documentos\\Github\\Truffle\\primeiro-projeto\\contracts\\HelloWorld.sol",
  "compiler": {
    "name": "solc",
    "version": "0.8.13+commit.abaa5c0e.Emscripten.clang"
  },
  "schemaVersion": "3.4.15",
  "updatedAt": "2023-08-24T12:09:31.250Z",
  "networkType": "ethereum",
  "devdoc": {
    "kind": "dev",
    "methods": {},
    "version": 1
  },
  "userdoc": {
    "kind": "user",
    "methods": {},
    "version": 1
  }
}